:0A0A0200C0F9A4B0999282F8809028
:040A0C0002080000DC
:1009D6007E00CFCDCFCECCCE1208F274022FF58298
:0B09E600740A3EF583E493F5A07F0A3D
:1009F100E4FEEEC39F5009E4FD0DBD7DFC0E80F2C7
:010A010022D2
:1009470020B51F30B5FD20B61930B6FD0509E509FC
:1009570070020508B4100BE508B42706750827755B
:10096700090F20B61F30B6FD20B51930B5FDE509D2
:10097700150970021508C3E508648094805005E4E2
:09098700F508F509AE08AF0922DC
:10099000C292C291C290C3EF9401EE9400400FEF57
:1009A0009405EE94005007D292C291C29022C3EFF8
:1009B0009405EE9400400FEF940AEE94005007D295
:1009C00091C292C29022C3EF940AEE94004006D2E4
:0609D00090C292C29122C8
:10088C00120947AB07AA06120990D2B17C007D0A67
:10089C001208F274022DF582740A3C1209E975A053
:1008AC00FFC2B1D2B27C007D64AF03AE021208F27B
:1008BC007F0A1209D675A0FFC2B2D2B37C037DE8C1
:1008CC00AF03AE021208F27F641209D675A0FFC204
:1008DC00B3D2B47C037DE8AF03AE021209DE75A07F
:0608EC00FFC2B402088CFB
:03000000020800F3
:0C080000787FE4F6D8FD758109020847F6
:1008F200BC000BBE0029EF8DF084FFADF022E4CCEA
:10090200F875F008EF2FFFEE33FEEC33FCEE9DECB2
:10091200984005FCEE9DFE0FD5F0E9E4CEFD22EDF8
:10092200F8F5F0EE8420D21CFEADF075F008EF2F42
:10093200FFED33FD4007985006D5F0F222C398FD33
:050942000FD5F0EA22D0
:10080C0002088CE493A3F8E493A34003F68001F26E
:10081C0008DFF48029E493A3F85407240CC8C333ED
:10082C00C4540F4420C8834004F456800146F6DFBC
:10083C00E4800B0102040810204080900A0CE47E36
:10084C00019360BCA3FF543F30E509541FFEE493B1
:10085C00A360010ECF54C025E060A840B8E493A378
:10086C00FAE493A3F8E493A3C8C582C8CAC583CAA3
:10087C00F0A3C8C582C8CAC583CADFE9DEE780BE5B
:010A100000E5
:00000001FF
